:020000040000FA
:100000000C9462000C948A000C948A000C948A0070
:100010000C948A000C948A000C948A000C948A0038
:100020000C948A000C948A000C948A000C948A0028
:100030000C948A000C948A000C948A000C948A0018
:100040000C9449020C948A000C94B9020C9493020B
:100050000C948A000C948A000C948A000C948A00F8
:100060000C948A000C948A000000000023002600F3
:10007000290000000008000201000003040700003E
:1000800000000000000000000000250028002B00F8
:1000900000000000240027002A00040404040404D3
:1000A0000404020202020202030303030303010227
:1000B00004081020408001020408102001020408F6
:1000C0001020300311241FBECFEFD8E0DEBFCDBF1C
:1000D00011E0A0E0B1E0E8EEF9E002C005900D9279
:1000E000A633B107D9F721E0A6E3B1E001C01D9224
:1000F000A23EB207E1F710E0C2E6D0E004C02197CB
:10010000FE010E94EC04C136D107C9F70E94BD036D
:100110000C94F2040C94000090E0FC01EE58FF4FA8
:100120002491FC01E255FF4F3491FC01E656FF4F4C
:10013000E491EE23C9F0222339F0233001F1A8F431
:10014000213019F1223029F1F0E0EE0FFF1FEA57BC
:10015000FF4FA591B4918FB7F894EC91611126C02F
:1001600030953E233C938FBF08952730A9F0283067
:10017000C9F0243049F7809180008F7D03C08091C1
:1001800080008F7780938000DFCF84B58F7784BD28
:10019000DBCF84B58F7DFBCF8091B0008F778093CC
:1001A000B000D2CF8091B0008F7DF9CF3E2BDACF57
:1001B0003FB7F89480913B0190913C01A0913D01A3
:1001C000B0913E0126B5A89B05C02F3F19F00196BE
:1001D000A11DB11D3FBFBA2FA92F982F8827BC01A1
:1001E000CD01620F711D811D911D42E0660F771FC9
:1001F000881F991F4A95D1F708958F929F92AF92C9
:10020000BF92CF92DF92EF92FF924B015C010E946E
:10021000D8006B017C010E94D8006C197D098E0901
:100220009F09683E734081059105A8F321E0821A79
:100230009108A108B10888EEC80E83E0D81EE11C21
:10024000F11C81149104A104B10429F7FF90EF90EF
:10025000DF90CF90BF90AF909F908F900895AF9216
:10026000BF92CF92DF92EF92FF920F931F93CF93A3
:10027000DF936C017B018B01040F151FEB015E0105
:10028000AE18BF08C017D10759F06991D601ED919A
:10029000FC910190F081E02DC6010995892B79F739
:1002A000C501DF91CF911F910F91FF90EF90DF90EB
:1002B000CF90BF90AF900895FC01538D448D252FB2
:1002C00030E0842F90E0821B930B541710F0CF96F0
:1002D000089501970895FC01918D828D981761F022
:1002E000A28DAE0FBF2FB11D5D968C91928D9F5F39
:1002F0009F73928F90E008958FEF9FEF0895FC0118
:10030000918D828D981731F0828DE80FF11D858DCA
:1003100090E008958FEF9FEF0895FC01918D228D5D
:10032000892F90E0805C9F4F821B91098F739927E2
:1003300008958FE391E00E948D0121E0892B09F45B
:1003400020E0822F089580E090E0892B29F00E9420
:10035000990181110C9400000895FC01A48DA80F4F
:10036000B92FB11DA35ABF4F2C91848D90E00196F7
:100370008F739927848FA689B7892C93A089B18917
:100380008C91837080648C93938D848D981306C0B8
:100390000288F389E02D80818F7D80830895EF921C
:1003A000FF920F931F93CF93DF93EC0181E0888F2F
:1003B0009B8D8C8D98131AC0E889F989808185FFFF
:1003C00015C09FB7F894EE89FF896083E889F989A1
:1003D00080818370806480839FBF81E090E0DF91A3
:1003E000CF911F910F91FF90EF900895F62E0B8DF6
:1003F00010E00F5F1F4F0F731127E02E8C8D8E11B1
:100400000CC00FB607FCFACFE889F989808185FF17
:10041000F5CFCE010E94AD01F1CFEB8DEC0FFD2F9A
:10042000F11DE35AFF4FF0829FB7F8940B8FEA89D2
:10043000FB8980818062CFCFCF93DF93EC01888DE1
:100440008823B9F0AA89BB89E889F9898C9185FD4F
:1004500003C0808186FD0DC00FB607FCF7CF8C91DD
:1004600085FFF2CF808185FFEDCFCE010E94AD01E7
:10047000E9CFDF91CF910895FC0101900020E9F7C9
:100480003197AF01481B590BBC018FE391E00C94ED
:100490002F011F920F920FB60F9211242F933F93AB
:1004A0008F939F93AF93BF938091370190913801C1
:1004B000A0913901B0913A013091360123E0230F28
:1004C0002D3758F50196A11DB11D2093360180935B
:1004D000370190933801A0933901B0933A0180918C
:1004E0003B0190913C01A0913D01B0913E010196EC
:1004F000A11DB11D80933B0190933C01A0933D0150
:10050000B0933E01BF91AF919F918F913F912F91F9
:100510000F900FBE0F901F90189526E8230F02969C
:10052000A11DB11DD2CF1F920F920FB60F921124B1
:100530002F933F934F935F936F937F938F939F93EB
:10054000AF93BF93EF93FF938FE391E00E94AD01D0
:10055000FF91EF91BF91AF919F918F917F916F919B
:100560005F914F913F912F910F900FBE0F901F9071
:1005700018951F920F920FB60F9211242F938F93FD
:100580009F93EF93FF93E0914F01F0915001808191
:10059000E0915501F091560182FD1BC09081809140
:1005A00058018F5F8F7320915901821741F0E091BC
:1005B0005801F0E0E15CFE4F958F80935801FF9168
:1005C000EF919F918F912F910F900FBE0F901F90E1
:1005D00018958081F4CFCF92DF92EF92FF920F9324
:1005E0001F93E82FF92F05C0015011092109310986
:1005F00061F1908196239417B9F305C00150110958
:100600002109310911F1908196239413F7CFC12C60
:10061000D12CE12CF12C0AC08FEFC81AD80AE80AB5
:10062000F80A0C151D052E053F0579F080818623FB
:10063000841791F36C2D7D2D8E2D9F2D1F910F9181
:10064000FF90EF90DF90CF90089560E070E080E041
:1006500090E01F910F91FF90EF90DF90CF90089561
:10066000CF93DF93109242011092410188EE93E004
:10067000A0E0B0E08093430190934401A093450132
:10068000B093460184E091E09093400180933F0154
:1006900085EC90E090934C0180934B0184EC90E0CA
:1006A00090934E0180934D0180EC90E09093500127
:1006B00080934F0181EC90E090935201809351011F
:1006C00082EC90E0909354018093530186EC90E08B
:1006D0009093560180935501109258011092590140
:1006E00010925A0110925B0189E08093DC018AE04C
:1006F0008093DD01E7EBF0E02491E3EAF0E0849100
:10070000882399F090E0880F991FFC01E057FF4F74
:10071000A591B491FC01EA57FF4F859194918FB751
:10072000F894EC91E22BEC938FBF8091DD0190E087
:10073000FC01E255FF4F249186569F4FFC018491A6
:100740008823C1F090E0880F991FFC01E057FF4F0C
:10075000C591D491FC01EA57FF4FA591B4919FB781
:10076000F8948881E22FE0958E2388838C91E8238A
:10077000EC939FBFDF91CF910895CF93DF93CDB7D7
:10078000DEB7A1970FB6F894DEBF0FBECDBF789449
:1007900084B5826084BD84B5816084BD85B5826086
:1007A00085BD85B5816085BD80916E008160809337
:1007B0006E001092810080918100826080938100A0
:1007C00080918100816080938100809180008160B0
:1007D000809380008091B10084608093B10080910B
:1007E000B00081608093B00080917A008460809333
:1007F0007A0080917A00826080937A0080917A00FA
:10080000816080937A0080917A00806880937A007A
:100810001092C100E0914F01F091500182E080837D
:10082000E0914B01F0914C011082E0914D01F0916B
:100830004E018FEC808310925701E0915301F091AB
:10084000540186E08083E0915101F0915201808152
:1008500080618083E0915101F09152018081886034
:100860008083E0915101F091520180818068808302
:10087000E0915101F091520180818F7D80832AE3C4
:10088000822E912CA12CB12C30E0E32E30E0F32EFF
:1008900061E08091DC010E948C006AE070E080E001
:1008A00090E00E94FD0060E08091DC010E948C00DD
:1008B0008091DD0190E0FC01E255FF4F6491FC0165
:1008C000E656FF4FE491F0E0EE0FFF1FE859FF4FAF
:1008D0008591949100EA1AE520E030E0462F0E94CD
:1008E000EB02611571058105910529F06F5F7F4F5E
:1008F0008F4F9F4F9F70A50194010E94CA042093BF
:10090000DE013093DF014093E0015093E10182E189
:1009100091E00E943C022091DE013091DF01409184
:10092000E0015091E10119A28E010F5D1F4F8AE095
:10093000482E512C612C712CCA01B901A3019201DE
:100940000E94CA04605DF80162938F012115310590
:100950004105510589F7309719F0CF010E943C02FB
:100960008DE291E00E943C0282E391E00E943C0211
:1009700060ED77E080E090E00E94FD00E114F1047A
:1009800009F486CF0E949901882309F481CF0E943F
:1009900000007ECFA1E21A2EAA1BBB1BFD010DC0D9
:1009A000AA1FBB1FEE1FFF1FA217B307E407F5071F
:1009B00020F0A21BB30BE40BF50B661F771F881FFB
:1009C000991F1A9469F760957095809590959B0191
:1009D000AC01BD01CF010895EE0FFF1F0590F4910A
:1009E000E02D0994F894FFCF00000000CF012F0103
:1009F0005C011C028D016B017F01546865206465F8
:100A00007465637465642064697374616E636520E2
:0E0A100069733A200020636D2E000D0A00006D
:107E0000112484B714BE81FFF0D085E080938100F7
:107E100082E08093C00088E18093C10086E0809377
:107E2000C20080E18093C4008EE0C9D0259A86E02C
:107E300020E33CEF91E0309385002093840096BBD3
:107E4000B09BFECF1D9AA8958150A9F7CC24DD24C4
:107E500088248394B5E0AB2EA1E19A2EF3E0BF2EE7
:107E6000A2D0813461F49FD0082FAFD0023811F036
:107E7000013811F484E001C083E08DD089C08234E0
:107E800011F484E103C0853419F485E0A6D080C0E4
:107E9000853579F488D0E82EFF2485D0082F10E0AE
:107EA000102F00270E291F29000F111F8ED06801E7
:107EB0006FC0863521F484E090D080E0DECF843638
:107EC00009F040C070D06FD0082F6DD080E0C81688
:107ED00080E7D80618F4F601B7BEE895C0E0D1E017
:107EE00062D089930C17E1F7F0E0CF16F0E7DF06D8
:107EF00018F0F601B7BEE89568D007B600FCFDCFD4
:107F0000A601A0E0B1E02C9130E011968C91119780
:107F100090E0982F8827822B932B1296FA010C0160
:107F200087BEE89511244E5F5F4FF1E0A038BF0790
:107F300051F7F601A7BEE89507B600FCFDCF97BE46
:107F4000E89526C08437B1F42ED02DD0F82E2BD052
:107F50003CD0F601EF2C8F010F5F1F4F84911BD097
:107F6000EA94F801C1F70894C11CD11CFA94CF0C13
:107F7000D11C0EC0853739F428D08EE10CD085E9AC
:107F80000AD08FE07ACF813511F488E018D01DD067
:107F900080E101D065CF982F8091C00085FFFCCF94
:107FA0009093C60008958091C00087FFFCCF809118
:107FB000C00084FD01C0A8958091C6000895E0E648
:107FC000F0E098E1908380830895EDDF803219F02E
:107FD00088E0F5DFFFCF84E1DECF1F93182FE3DFCA
:107FE0001150E9F7F2DF1F91089580E0E8DFEE27F6
:047FF000FF270994CA
:027FFE00040479
:00000001FF
